{
  "contractName": "FriendNameResolver",
  "abi": [
    {
      "inputs": [
        {
          "internalType": "string",
          "name": "",
          "type": "string"
        }
      ],
      "name": "Person_by_SenderName",
      "outputs": [
        {
          "internalType": "string",
          "name": "friendName",
          "type": "string"
        },
        {
          "internalType": "address payable",
          "name": "walletAddress",
          "type": "address"
        }
      ],
      "stateMutability": "view",
      "type": "function",
      "constant": true
    },
    {
      "inputs": [
        {
          "internalType": "string",
          "name": "_friendlyname",
          "type": "string"
        }
      ],
      "name": "addNameForWallet",
      "outputs": [],
      "stateMutability": "nonpayable",
      "type": "function"
    },
    {
      "inputs": [
        {
          "internalType": "string",
          "name": "_friendlyname",
          "type": "string"
        }
      ],
      "name": "showNameForWallet",
      "outputs": [
        {
          "internalType": "address payable",
          "name": "",
          "type": "address"
        }
      ],
      "stateMutability": "view",
      "type": "function",
      "constant": true
    },
    {
      "inputs": [],
      "name": "showName",
      "outputs": [
        {
          "internalType": "uint256",
          "name": "",
          "type": "uint256"
        }
      ],
      "stateMutability": "pure",
      "type": "function",
      "constant": true
    }
  ],
  "bytecode": "0x60806040526000805534801561001457600080fd5b5061074d806100246000396000f3fe608060405234801561001057600080fd5b506004361061004c5760003560e01c8063223c70491461005157806326fd3cd51461006f578063765b53cc146100a0578063a8fb1f58146100d0575b600080fd5b6100596100ec565b6040516100669190610392565b60405180910390f35b61008960048036038101906100849190610507565b6100f6565b604051610097929190610619565b60405180910390f35b6100ba60048036038101906100b59190610507565b6101d8565b6040516100c79190610649565b60405180910390f35b6100ea60048036038101906100e59190610507565b610223565b005b6000612ed8905090565b60018180516020810182018051848252602083016020850120818352809550505050505060009150905080600001805461012f90610693565b80601f016020809104026020016040519081016040528092919081815260200182805461015b90610693565b80156101a85780601f1061017d576101008083540402835291602001916101a8565b820191906000526020600020905b81548152906001019060200180831161018b57829003601f168201915b5050505050908060010160009054906101000a900473ffffffffffffffffffffffffffffffffffffffff16905082565b60006001826040516101ea9190610700565b908152602001604051809103902060010160009054906101000a900473ffffffffffffffffffffffffffffffffffffffff169050919050565b60405180604001604052808281526020013373ffffffffffffffffffffffffffffffffffffffff1681525060018260405161025e9190610700565b908152602001604051809103902060008201518160000190805190602001906102889291906102d6565b5060208201518160010160006101000a81548173ffffffffffffffffffffffffffffffffffffffff021916908373ffffffffffffffffffffffffffffffffffffffff16021790555090505050565b8280546102e290610693565b90600052602060002090601f016020900481019282610304576000855561034b565b82601f1061031d57805160ff191683800117855561034b565b8280016001018555821561034b579182015b8281111561034a57825182559160200191906001019061032f565b5b509050610358919061035c565b5090565b5b8082111561037557600081600090555060010161035d565b5090565b6000819050919050565b61038c81610379565b82525050565b60006020820190506103a76000830184610383565b92915050565b6000604051905090565b600080fd5b600080fd5b600080fd5b600080fd5b6000601f19601f8301169050919050565b7f4e487b7100000000000000000000000000000000000000000000000000000000600052604160045260246000fd5b610414826103cb565b810181811067ffffffffffffffff82111715610433576104326103dc565b5b80604052505050565b60006104466103ad565b9050610452828261040b565b919050565b600067ffffffffffffffff821115610472576104716103dc565b5b61047b826103cb565b9050602081019050919050565b82818337600083830152505050565b60006104aa6104a584610457565b61043c565b9050828152602081018484840111156104c6576104c56103c6565b5b6104d1848285610488565b509392505050565b600082601f8301126104ee576104ed6103c1565b5b81356104fe848260208601610497565b91505092915050565b60006020828403121561051d5761051c6103b7565b5b600082013567ffffffffffffffff81111561053b5761053a6103bc565b5b610547848285016104d9565b91505092915050565b600081519050919050565b600082825260208201905092915050565b60005b8381101561058a57808201518184015260208101905061056f565b83811115610599576000848401525b50505050565b60006105aa82610550565b6105b4818561055b565b93506105c481856020860161056c565b6105cd816103cb565b840191505092915050565b600073ffffffffffffffffffffffffffffffffffffffff82169050919050565b6000610603826105d8565b9050919050565b610613816105f8565b82525050565b60006040820190508181036000830152610633818561059f565b9050610642602083018461060a565b9392505050565b600060208201905061065e600083018461060a565b92915050565b7f4e487b7100000000000000000000000000000000000000000000000000000000600052602260045260246000fd5b600060028204905060018216806106ab57607f821691505b6020821081036106be576106bd610664565b5b50919050565b600081905092915050565b60006106da82610550565b6106e481856106c4565b93506106f481856020860161056c565b80840191505092915050565b600061070c82846106cf565b91508190509291505056fea26469706673582212204c4b57fe5b1a536cbd959b96e8208f44740432bd571af049631e2a40869764b964736f6c634300080d0033",
  "immutableReferences": {},
  "source": "// SPDX-License-Identifier: MIT\r\npragma solidity >=0.4.22 <0.9.0;\r\n\r\ncontract FriendNameResolver {\r\n    uint internal listOfRecords = 0;\r\n\r\n    struct Person {\r\n        string friendName;\r\n        address payable walletAddress;\r\n    }\r\n    mapping(string => Person) public Person_by_SenderName;\r\n\r\n    // function function-name(parameter-list) scope returns()\r\n    function addNameForWallet(string memory _friendlyname) public {\r\n        Person_by_SenderName [_friendlyname] = Person( _friendlyname, payable(msg.sender));\r\n    }\r\n\r\n    function showNameForWallet(string memory _friendlyname) public view returns (address payable) {\r\n        return Person_by_SenderName[_friendlyname].walletAddress;\r\n    }\r\n    \r\n    function showName() public pure returns(uint) {\r\n        return 11992;\r\n    }\r\n}",
  "sourcePath": "C:\\web3Workspace\\smartContract-101\\contracts\\FriendNameResolver.sol",
  "compiler": {
    "name": "solc",
    "version": "0.8.13+commit.abaa5c0e.Emscripten.clang"
  },
  "schemaVersion": "3.4.7",
  "updatedAt": "2022-04-18T06:19:48.569Z",
  "networkType": "ethereum",
  "devdoc": {
    "kind": "dev",
    "methods": {},
    "version": 1
  },
  "userdoc": {
    "kind": "user",
    "methods": {},
    "version": 1
  }
}