{
  "contractName": "FriendName",
  "abi": [
    {
      "inputs": [
        {
          "internalType": "string",
          "name": "",
          "type": "string"
        }
      ],
      "name": "Person_by_SenderName",
      "outputs": [
        {
          "internalType": "string",
          "name": "friendName",
          "type": "string"
        },
        {
          "internalType": "address payable",
          "name": "walletAddress",
          "type": "address"
        }
      ],
      "stateMutability": "view",
      "type": "function"
    },
    {
      "inputs": [
        {
          "internalType": "string",
          "name": "_friendlyname",
          "type": "string"
        }
      ],
      "name": "addNameForWallet",
      "outputs": [],
      "stateMutability": "nonpayable",
      "type": "function"
    }
  ],
  "bytecode": "0x60806040526000805534801561001457600080fd5b50610645806100246000396000f3fe608060405234801561001057600080fd5b50600436106100365760003560e01c806326fd3cd51461003b578063a8fb1f581461006c575b600080fd5b6100556004803603810190610050919061041a565b610088565b60405161006392919061052c565b60405180910390f35b6100866004803603810190610081919061041a565b61016a565b005b6001818051602081018201805184825260208301602085012081835280955050505050506000915090508060000180546100c19061058b565b80601f01602080910402602001604051908101604052809291908181526020018280546100ed9061058b565b801561013a5780601f1061010f5761010080835404028352916020019161013a565b820191906000526020600020905b81548152906001019060200180831161011d57829003601f168201915b5050505050908060010160009054906101000a900473ffffffffffffffffffffffffffffffffffffffff16905082565b60405180604001604052808281526020013373ffffffffffffffffffffffffffffffffffffffff168152506001826040516101a591906105f8565b908152602001604051809103902060008201518160000190805190602001906101cf92919061021d565b5060208201518160010160006101000a81548173ffffffffffffffffffffffffffffffffffffffff021916908373ffffffffffffffffffffffffffffffffffffffff16021790555090505050565b8280546102299061058b565b90600052602060002090601f01602090048101928261024b5760008555610292565b82601f1061026457805160ff1916838001178555610292565b82800160010185558215610292579182015b82811115610291578251825591602001919060010190610276565b5b50905061029f91906102a3565b5090565b5b808211156102bc5760008160009055506001016102a4565b5090565b6000604051905090565b600080fd5b600080fd5b600080fd5b600080fd5b6000601f19601f8301169050919050565b7f4e487b7100000000000000000000000000000000000000000000000000000000600052604160045260246000fd5b610327826102de565b810181811067ffffffffffffffff82111715610346576103456102ef565b5b80604052505050565b60006103596102c0565b9050610365828261031e565b919050565b600067ffffffffffffffff821115610385576103846102ef565b5b61038e826102de565b9050602081019050919050565b82818337600083830152505050565b60006103bd6103b88461036a565b61034f565b9050828152602081018484840111156103d9576103d86102d9565b5b6103e484828561039b565b509392505050565b600082601f830112610401576104006102d4565b5b81356104118482602086016103aa565b91505092915050565b6000602082840312156104305761042f6102ca565b5b600082013567ffffffffffffffff81111561044e5761044d6102cf565b5b61045a848285016103ec565b91505092915050565b600081519050919050565b600082825260208201905092915050565b60005b8381101561049d578082015181840152602081019050610482565b838111156104ac576000848401525b50505050565b60006104bd82610463565b6104c7818561046e565b93506104d781856020860161047f565b6104e0816102de565b840191505092915050565b600073ffffffffffffffffffffffffffffffffffffffff82169050919050565b6000610516826104eb565b9050919050565b6105268161050b565b82525050565b6000604082019050818103600083015261054681856104b2565b9050610555602083018461051d565b9392505050565b7f4e487b7100000000000000000000000000000000000000000000000000000000600052602260045260246000fd5b600060028204905060018216806105a357607f821691505b6020821081036105b6576105b561055c565b5b50919050565b600081905092915050565b60006105d282610463565b6105dc81856105bc565b93506105ec81856020860161047f565b80840191505092915050565b600061060482846105c7565b91508190509291505056fea2646970667358221220d9e47090c255d2b21d476bf55bcdce571e88d51e4bd0712864568c02d08afa7e64736f6c634300080d0033",
  "immutableReferences": {},
  "source": "// SPDX-License-Identifier: MIT\r\npragma solidity >=0.4.22 <0.9.0;\r\n\r\ncontract FriendName {\r\n    uint internal listOfRecords = 0;\r\n\r\n    struct Person {\r\n        string friendName;\r\n        address payable walletAddress;\r\n    }\r\n    mapping(string => Person) public Person_by_SenderName;\r\n\r\n    // function function-name(parameter-list) scope returns()\r\n    function addNameForWallet(string memory _friendlyname) public {\r\n        Person_by_SenderName [_friendlyname] = Person( _friendlyname, payable(msg.sender));\r\n    }  \r\n}",
  "sourcePath": "C:\\web3Workspace\\smartContract-101\\contracts\\FriendNameResolver.sol",
  "compiler": {
    "name": "solc",
    "version": "0.8.13+commit.abaa5c0e.Emscripten.clang"
  },
  "schemaVersion": "3.4.7",
  "updatedAt": "2022-04-18T05:23:06.630Z",
  "devdoc": {
    "kind": "dev",
    "methods": {},
    "version": 1
  },
  "userdoc": {
    "kind": "user",
    "methods": {},
    "version": 1
  }
}